S00D0000436C6F636B2E737265632B
S11300000C942A000C9447000C9447000C9447006D
S11300100C9447000C9402020C9447000C94470083
S11300200C9447000C9447000C9447000C94470030
S11300300C9447000C9447000C9447000C94470020
S11300400C9447000C9447000C9447000C94470010
S11300500C94470011241FBECFE5D8E0DEBFCDBF0E
S113006010E0A0E6B0E0E4EAFDE002C005900D92E5
S1130070AC3BB107D9F710E0ACEBB0E001C01D9286
S1130080A23CB107E1F70E9449000C94D0060C94FD
S113009000000E94BF040E948C0582E40E9447066F
S11300A0A09AA19AA29AA39AA49AA59A80E690E00B
S11300B00E940D0682E061E00E9426068CE690E034
S11300C00E940D060E946D060F2EF5E9CF2EF0E07A
S11300D0DF2EF02D00E610E00F2EFCE6EF2EF0E010
S11300E0FF2EF02D0F2EF6E7AF2EF0E0BF2EF02DF1
S11300F00F2EFFE78F2EF0E09F2EF02D0F2EFAE843
S11301006F2EF0E07F2EF02DCAE00E94FC04809355
S1130110C0008F3F09F4D9C0813309F0BEC00E94EA
S11301201C06C5010E940D0681E067E00E942606B8
S11301308FEF94E3ACE081509040A040E1F700C021
S113014000000E94FC048093BF008F3FD1F30E9403
S1130150EB058FEF92E5A7E081509040A040E1F7D6
S113016000C000000E94FC048093C1008F3FD1F3C3
S11301700E94EB058FEF92E5A7E081509040A040EC
S1130180E1F700C000009091C10090518091BF0040
S1130190880F282F220F220F820F890F8093BD0012
S11301A00E941C06C4010E940D0681E069E00E94C1
S11301B026060E94FC048093BF008F3FD1F30E9467
S11301C0EB058FEF92E5A7E081509040A040E1F766
S11301D000C000000E94FC048093C1008F3FD1F353
S11301E00E94EB058FEF92E5A7E081509040A0407C
S11301F0E1F700C000009091C10090518091BF00D0
S1130200880F282F220F220F820F890F8093BC00A2
S11302100E941C06C3010E940D0681E069E00E9451
S113022026060E94FC048093BF008F3FD1F30E94F6
S1130230EB058FEF92E5A7E081509040A040E1F7F5
S113024000C000000E94FC048093C1008F3FD1F3E2
S11302500E94EB058FEF92E5A7E081509040A0400B
S1130260E1F700C000009091C10090518091BF005F
S1130270880F282F220F220F820F890F8093BE0030
S11302800E941C06C8010E940D0682E061E00E94E3
S11302902606C7010E940D0618C00E941C06C6014E
S11302A00E940D068FEF99E6A8E181509040A0408E
S11302B0E1F700C00000C8010E940D0682E061E081
S11302C00E942606C7010E940D06A99AAA9AAB9A13
S11302D0AC9AAD9AA8988091BE006C2F0E94C40677
S11302E082E4692F0E944B06AFE0B7E21197F1F761
S11302F000C00000A89AAA9AAB9AAC9AAD9AA998A1
S11303008091BE006C2F0E94C406682F82E40E9474
S11303104B068FE097E20197F1F700C00000A89A1E
S1130320A99AAB9AAC9AAD9AAA988091BC006C2F0A
S11303300E94C40682E4692F0E944B06AFE0B7E234
S11303401197F1F700C00000A89AA99AAA9AAC9A4A
S1130350AD9AAB988091BC006C2F0E94C406682FA4
S113036082E40E944B068FE097E20197F1F700C008
S11303700000A89AA99AAA9AAB9AAD9AAC988091CF
S1130380BD006C2F0E94C40682E4692F0E944B06B4
S1130390AFE0B7E21197F1F700C00000A89AA99A5C
S11303A0AA9AAB9AAC9AAD988091BD006C2F0E942A
S11303B0C406682F82E40E944B068FE097E20197FF
S11303C0F1F700C000008091BE008C3338F0109229
S11303D0BE008091BC008F5F8093BC008091BC0004
S11303E08C3338F01092BC008091BD008F5F8093F5
S11303F0BD008091BD008D3008F487CE81E08093EC
S1130400BD0083CE1F920F920FB60F9211248F93CB
S11304108091BE008F5F8093BE008F910F900FBEBE
S11304200F901F901895823451F1833420F4813455
S113043009F07BC007C0833409F43EC0843409F05A
S113044074C057C0413069F42AB381E090E0AC0134
S113045002C0440F551F6A95E2F7BA01622B6ABBCA
S113046008952AB381E090E0AC0102C0440F551F07
S11304706A95E2F7BA01609562236ABB0895413038
S113048069F427B381E090E0AC0102C0440F551F2A
S11304906A95E2F7BA01622B67BB089527B381E03E
S11304A090E0AC0102C0440F551F6A95E2F7BA010F
S11304B06095622367BB0895413069F424B381E0F9
S11304C090E0AC0102C0440F551F6A95E2F7BA01EF
S11304D0622B64BB089524B381E090E0AC0102C0B8
S11304E0440F551F6A95E2F7BA016095622364BB15
S11304F00895413069F421B381E090E0AC0102C079
S1130500440F551F6A95E2F7BA01622B61BB089547
S113051021B381E090E0AC0102C0440F551F6A95FD
S1130520E2F7BA016095622361BB0895823451F108
S1130530833420F4813409F07BC007C0833409F488
S11305403EC0843409F074C057C0413069F42BB301
S113055081E090E0AC0102C0440F551F6A95E2F7B8
S1130560BA01622B6BBB08952BB381E090E0AC0120
S113057002C0440F551F6A95E2F7BA0160956223E1
S11305806BBB0895413069F428B381E090E0AC017D
S113059002C0440F551F6A95E2F7BA01622B68BB8B
S11305A0089528B381E090E0AC0102C0440F551FC8
S11305B06A95E2F7BA016095622368BB08954130F9
S11305C069F425B381E090E0AC0102C0440F551FEB
S11305D06A95E2F7BA01622B65BB089525B381E001
S11305E090E0AC0102C0440F551F6A95E2F7BA01CE
S11305F06095622365BB0895413069F422B381E0BC
S113060090E0AC0102C0440F551F6A95E2F7BA01AD
S1130610622B62BB089522B381E090E0AC0102C07A
S1130620440F551F6A95E2F7BA016095622362BBD5
S113063008958234F1F0833420F4813409F04FC0FA
S113064006C0833441F1843409F049C036C029B36B
S113065081E090E0062E02C0880F991F0A94E2F709
S113066030E08223932302C0959587956A95E2F73B
S1130670089526B381E090E0062E02C0880F991FEA
S11306800A94E2F730E08223932302C0959587957C
S11306906A95E2F7089523B381E090E0062E02C044
S11306A0880F991F0A94E2F730E08223932302C053
S11306B0959587956A95E2F7089520B381E090E0D7
S11306C0062E02C0880F991F0A94E2F730E08223B5
S11306D0932302C0959587956A95E2F7089580E083
S11306E008958234B9F0833418F48134C9F505C00F
S11306F08334E9F08434A1F527C02BB381E090E082
S1130700AC0102C0440F551F6A95E2F7BA01622793
S11307106BBB089528B381E090E0AC0102C0440FA4
S1130720551F6A95E2F7BA01622768BB089525B39D
S113073081E090E0AC0102C0440F551F6A95E2F7D6
S1130740BA01622765BB089522B381E090E0AC0151
S113075002C0440F551F6A95E2F7BA01622762BBD3
S11307600895823461F0833418F4813469F405C047
S1130770833439F0843441F406C06ABB089567BBFE
S1130780089564BB089561BB0895823461F0833495
S113079018F4813469F405C0833439F0843441F4A5
S11307A006C06BBB089568BB089565BB089562BB22
S11307B00895823461F0833418F4813471F405C0EF
S11307C0833439F0843449F406C089B3089586B378
S11307D0089583B3089580B3089580E00895823422
S11307E051F1833420F4813409F07BC007C0833491
S11307F009F43EC0843409F074C057C0413069F430
S11308002BB381E090E0AC0102C0440F551F6A9500
S1130810E2F7BA01622B6BBB08952BB381E090E041
S1130820AC0102C0440F551F6A95E2F7BA01609506
S113083062236BBB0895413069F428B381E090E0F2
S1130840AC0102C0440F551F6A95E2F7BA01622B4E
S113085068BB089528B381E090E0AC0102C0440F66
S1130860551F6A95E2F7BA016095622368BB089543
S1130870413069F425B381E090E0AC0102C0440F3B
S1130880551F6A95E2F7BA01622B65BB089525B33B
S113089081E090E0AC0102C0440F551F6A95E2F775
S11308A0BA016095622365BB0895413069F422B3AF
S11308B081E090E0AC0102C0440F551F6A95E2F755
S11308C0BA01622B62BB089522B381E090E0AC01CF
S11308D002C0440F551F6A95E2F7BA01609562237E
S11308E062BB08956F70823481F0833418F48134CC
S11308F0F1F405C0833479F08434C9F412C08BB3A5
S1130900807F8BBB8BB3862B8BBB88B3807F88BBEC
S113091088B3862B88BB85B3807F85BB85B3862B44
S113092085BB82B3807F82BB82B3682B62BB089590
S11309306295607F823481F0833418F48134F1F459
S113094005C0833479F08434C9F412C08BB38F703A
S11309508BBB8BB3862B8BBB88B38F7088BB88B360
S1130960862B88BB85B38F7085BB85B3862B85BBEF
S113097082B38F7082BB82B3682B62BB089584E418
S113098060E041E00E94130284E461E041E00E94DF
S1130990130284E462E041E00E94130284E463E011
S11309A041E00E94130284E464E040E00E941302E8
S11309B084E465E040E00E94130284E466E040E0E1
S11309C00E94130284E467E040E00E94130284E47E
S11309D064E041E00E94EF0384E465E041E00E94AA
S11309E0EF0384E466E041E00E94EF0384E467E0FF
S11309F041E00E94EF0308950F931F93CF93DF9379
S1130A00CDB7DEB760970FB6F894DEBF0FBECDBF8B
S1130A10DE011196E2EAF0E080E101900D9281504E
S1130A20E1F700E084E460E041E00E94960284E49F
S1130A3061E041E00E94960284E462E041E00E94A9
S1130A40960284E463E041E00E94960284E4602F0D
S1130A5040E00E94960210E0612F6C5F84E40E94E3
S1130A601903882361F4E02FF0E0EE0FFF1FEE0F6F
S1130A70FF1FE10FF11DEC0FFD1F818104C01F5FFB
S1130A80143051F70BC060960FB6F894DEBF0FBE5A
S1130A90CDBFDF91CF911F910F9108950F5F043067
S1130AA009F68FEFF0CF81E460E041E00E94960206
S1130AB08FE99FE00197F1F700C0000081E460E056
S1130AC040E00E9496028FE99FE00197F1F700C091
S1130AD000000895CF93C82F682F62956F7081E44A
S1130AE00E94980481E462E040E00E9496020E9421
S1130AF0530581E46C2F0E94980481E462E040E095
S1130B000E9496020E9453058FEC97E00197F1F73B
S1130B1000C00000CF9108958FEF91EEA4E08150C2
S1130B209040A040E1F700C0000081E464E041E0AF
S1130B300E94130281E465E041E00E94130281E413
S1130B4066E041E00E94130281E467E041E00E9414
S1130B50130281E460E041E00E94130281E461E059
S1130B6041E00E94130281E462E041E00E9413022A
S1130B7081E461E040E00E94960282E00E946A05FE
S1130B80AFE1BEE41197F1F700C0000088E20E94D3
S1130B906A058FEC97E00197F1F700C000008EE042
S1130BA00E946A05AFECB7E01197F1F700C00000AE
S1130BB081E00E946A058FE19EE40197F1F700C08D
S1130BC0000086E00E946A05AFECB7E01197F1F7E8
S1130BD000C000000895CF93C82F682F62956F70EE
S1130BE081E40E94980481E462E041E00E9496025C
S1130BF00E94530581E46C2F0E94980481E462E012
S1130C0041E00E9496020E9453058FEC97E0019701
S1130C10F1F700C00000CF910895CF93DF93EC016A
S1130C208881882331F021960E94EB0589918823DD
S1130C30D9F7DF91CF91089581E00E946A058FE191
S1130C409EE40197F1F700C000000895282F215079
S1130C50223070F4613170F4662371F0813019F43C
S1130C60962F91580AC0823041F4962F915405C0B2
S1130C7090E803C090E801C090E8892F0E946A05BB
S1130C808FEC97E00197F1F700C0000008956FEF33
S1130C900E94B1030895CF93DF93CDB7DEB72A97AF
S1130CA00FB6F894DEBF0FBECDBFDE011196E2EBA6
S1130CB0F0E09AE001900D929150E1F7FE01E60F09
S1130CC0F11D61810E94C5032A960FB6F894DEBF18
S1130CD00FBECDBFDF91CF91089582B5886082BDEC
S1130CE085B5816085BD85B5846085BD789489B7F7
S1130CF0806489BF089583B7886083BF80E58CBF13
S1130D0083B7816083BF83B7846083BF789489B7D6
S1130D10826089BF0895BB9A83B7886083BF80E4EB
S1130D208CBF83B7816083BF83B7846083BF83B77D
S1130D30806183BF0895BB9A83B7806483BF83B700
S1130D40886083BF80E48CBF83B7816083BF83B72F
S1130D50846083BF83B7806183BF83B7806283BFAE
S1130D600895BB9A83B7806483BF80E48CBF83B744
S1130D70816083BF83B7846083BF83B7806183BF8F
S1130D8083B7806283BF0895991B79E004C0991FDB
S1130D90961708F0961B881F7A95C9F780950895D1
S1070DA0F894FFCFF1
S1130DA45072657373203120746F3A007365742034
S1130DB4636C6F636B00486F7572733D2D2D004D2A
S1130DC4696E757465733D2D2D005365636F6E6490
S1130DD4733D2D2D0077726F6E672063686F6963AE
S1130DE465003738392F3435362A3132332D4130C2
S10F0DF43D2B3F065B4F666D7D477F6F13
S9030000FC
